:04000000FEEF7FF0A0
:10DB1A001200120012001200120012001200B88E37
:10DB2A001200B89E1200000E29EC71F01200026E6B
:10DB3A00025011EC6EF0120001C05AF002C05BF004
:10DB4A00120001C05EF002C05FF0120001C05CF07A
:10DB5A0002C05DF0120001C0A2F002C0A3F01200E0
:10DB6A0001C0A6F002C0A7F0120001C0A4F002C0D2
:10DB7A00A5F012000250B76E600007F0B6FF12005F
:10DB8A005BEC6EF0A5EC74F0F8EC6DF01200390164
:10DB9A00A3B7D2EF6DF0D5EF6DF0010ED6EF6DF0B1
:10DBAA00000E1200026E60000BF0B8FF600007F072
:10DBBA00B9FFB89E3901A39F12003901A6B5E8EF53
:10DBCA006DF0EBEF6DF0010EECEF6DF0000E120050
:10DBDA003901A3BFF3EF6DF0F6EF6DF0010EF7EF29
:10DBEA006DF0000E1200600E3901D96F000EDB6F66
:10DBFA00000EDD6F070EDF6F000EDE6F1200016E82
:10DC0A003901A3A90BEF6EF00DEF6EF005EF6EF080
:10DC1A00600007F0EAFD1200016E3901A6A718EFAD
:10DC2A006EF01AEF6EF012EF6EF0600007F0D2FDA0
:10DC3A0012006DEC6EF00009D8B426EF6EF028EFF2
:10DC4A006EF01EEF6EF0B70E04EC6EF01200250EA9
:10DC5A00296E000E1C6E000E1D6E23C01EF024C01D
:10DC6A001FF0290E206E58EC6FF0120000EE60F0E3
:10DC7A002A0EEE6AE806FDE100EE51F0090EEE6AA0
:10DC8A00E806FDE10001FFEF77F06F00D8FE07F02C
:10DC9A006F00DCFE08F00850036E0750056E03C0E3
:10DCAA0006F005C001F006C002F01200000E3901AC
:10DCBA00C06F000EC16F000EC26F000EC36F000E60
:10DCCA00C46F000EC56F000EC66F000EC76F12003C
:10DCDA00000E016E3901A3A975EF6EF077EF6EF0B1
:10DCEA0081EF6EF03D01F2AB7DEF6EF07FEF6EF0EB
:10DCFA0081EF6EF0010E016E01501200000E016EEE
:10DD0A003901A6A78BEF6EF08DEF6EF097EF6EF0EC
:10DD1A003D01DAAB93EF6EF095EF6EF097EF6EF090
:10DD2A00010E016E0150120008BE9EEF6EF0A0EFC8
:10DD3A006EF0A6EF6EF007C007F008C008F0B2EF69
:10DD4A006EF007C009F008C00AF0091E0A1E094A47
:10DD5A000A2A09C007F00AC008F01200260E2C6E23
:10DD6A0023C02DF0000E316E000E306E000E386E9C
:10DD7A00000E376E2D0E1C6E1D6A24C01EF025C0C3
:10DD8A001FF02C0E206E58EC6FF01CC02AF01DC03C
:10DD9A002BF023503024D96EDA6ADF6A2AC023F0C6
:10DDAA002BC024F01200036E6DEC6EF00009D8B49B
:10DDBA00E1EF6EF0E3EF6EF0D9EF6EF0B90E04EC1E
:10DDCA006EF06DEC6EF00009D8B4EEEF6EF0F0EF85
:10DDDA006EF0E6EF6EF0035004EC6EF06DEC6EF050
:10DDEA000009D8B4FBEF6EF0FDEF6EF0F3EF6EF0C2
:10DDFA00025004EC6EF01200026E6DEC6EF0000937
:10DE0A00D8B40AEF6FF00CEF6FF002EF6FF0B80EB4
:10DE1A0004EC6EF06DEC6EF00009D8B417EF6FF0F9
:10DE2A0019EF6FF00FEF6FF0010E04EC6EF06DEC6E
:10DE3A006EF00009D8B424EF6FF026EF6FF01CEFF4
:10DE4A006FF0025004EC6EF012006DEC6EF00009F7
:10DE5A00D8B432EF6FF034EF6FF02AEF6FF0BA0EEA
:10DE6A0004EC6EF0CCEC6DF00009D8B43FEF6FF023
:10DE7A0041EF6FF037EF6FF04DEF6FF0CCEC6DF0D4
:10DE8A000009D8B44BEF6FF04DEF6FF043EF6FF02E
:10DE9A00F8EC71F0630AD8A455EF6FF057EF6FF002
:10DEAA0043EF6FF012001EC021F01FC022F0000ED7
:10DEBA00526E000E516E70EF6FF01CC00CF01DC058
:10DECA000DF0210E0E6E20C00FF04CEC76F00C50C7
:10DEDA0051260D505222600087F0F6FF60008BF049
:10DEEA00F7FFF86A0800F5500009D8A47FEF6FF031
:10DEFA0081EF6FF062EF6FF051C01CF052C01DF05D
:10DF0A001200000E3D01D46F000ED66F000ED86FBE
:10DF1A00B00EDA6F800EDB6F000EDC6FE10EDD6F84
:10DF2A00040EDE6F000EDF6F000EE06F000EE16F71
:10DF3A00000EE26F220E016EDB0E026EB5EC6DF082
:10DF4A00240E016EDB0E026EBAEC6DF0200E016E2D
:10DF5A00DB0E026EB0EC6DF0000E586E12006DEC26
:10DF6A006EF00009D8B4BCEF6FF0BEEF6FF0B4EFFB
:10DF7A006FF0B10E04EC6EF0CCEC6DF00009D8B481
:10DF8A00C9EF6FF0CBEF6FF0C1EF6FF0F8EC71F003
:10DF9A00066ECCEC6DF00009D8B4D6EF6FF0D8EF6E
:10DFAA006FF0CEEF6FF0F8EC71F0076E0750056E68
:10DFBA00046A06500424026E000E0520036E120045
:10DFCA0003500410D8B4ECEF6FF0EEEF6FF012EFDD
:10DFDA0070F0010E056EF6EF6FF0D8900336043636
:10DFEA00052A04AEFBEF6FF0FDEF6FF0F2EF6FF072
:10DFFA000350015C04500258D8A006EF70F008EFF5
:10E00A0070F00CEF70F00350015E0450025AD89081
:10E01A0004320332052EFDEF6FF001C001F002C099
:10E02A0002F01200000E3D01EC6F000EED6F000EC3
:10E03A00EE6F000EEF6F000EF06F000EF16FB00E74
:10E04A00F26F800EF36F000EF46F670EF56F000E1D
:10E05A00F66F000EF76F000EF86F000EF96F000EE4
:10E06A00FA6F1C0E016EDB0E026EA6EC6DF01E0E30
:10E07A00016EDB0E026EABEC6DF01A0E016EDB0E5A
:10E08A00026EA1EC6DF0000E596E1200026E6DEC7C
:10E09A006EF00009D8B454EF70F056EF70F04CEF00
:10E0AA0070F0C60E04EC6EF06DEC6EF00009D8B498
:10E0BA0061EF70F063EF70F059EF70F0025004EC0A
:10E0CA006EF06DEC6EF00009D8B46EEF70F070EF80
:10E0DA0070F066EF70F0C20E04EC6EF06DEC6EF04C
:10E0EA000009D8B47BEF70F07DEF70F073EF70F039
:10E0FA00025004EC6EF01200036E6DEC6EF0000933
:10E10A00D8B48AEF70F08CEF70F082EF70F0C10E25
:10E11A0004EC6EF06DEC6EF00009D8B497EF70F075
:10E12A0099EF70F08FEF70F0035004EC6EF06DEC25
:10E13A006EF00009D8A4A4EF70F0A6EF70F09CEF7F
:10E14A0070F0C50E04EC6EF06DEC6EF00009D8B4F8
:10E15A00B1EF70F0B3EF70F0A9EF70F00350022442
:10E16A0004EC6EF01200036E6DEC6EF00009D8B488
:10E17A00C1EF70F0C3EF70F0B9EF70F0C10E04ECAC
:10E18A006EF06DEC6EF00009D8B4CEEF70F0D0EFFF
:10E19A0070F0C6EF70F00350022404EC6EF06DECE0
:10E1AA006EF00009D8B4DCEF70F0DEEF70F0D4EF57
:10E1BA0070F0C50E04EC6EF06DEC6EF00009D8B488
:10E1CA00E9EF70F0EBEF70F0E1EF70F0035004EC60
:10E1DA006EF01200000E066E000E056E035004105B
:10E1EA00D8B4FAEF70F0FCEF70F024EF71F0010E82
:10E1FA00076E04EF71F0D89003360436072A04AE8E
:10E20A0009EF71F00BEF71F000EF71F0D89005365D
:10E21A0006360350015C04500258D8A017EF71F07B
:10E22A0019EF71F01EEF71F00350015E0450025AAB
:10E23A000580D89004320332072E0BEF71F005C027
:10E24A0001F006C002F01200026E6DEC6EF00009D9
:10E25A00D8B432EF71F034EF71F02AEF71F0C50ED5
:10E26A0004EC6EF06DEC6EF00009D8B43FEF71F07B
:10E27A0041EF71F037EF71F0025004EC6EF06DEC83
:10E28A006EF00009D8B44CEF71F04EEF71F044EF24
:10E29A0071F0C10E04EC6EF06DEC6EF00009D8B4AA
:10E2AA0059EF71F05BEF71F051EF71F00250D8A4A1
:10E2BA0061EF71F063EF71F068EF71F0025004ECF6
:10E2CA006EF06CEF71F00250050F04EC6EF0120064
:10E2DA002B68000E2A6EA7EF71F0B2EC71F02B6E6C
:10E2EA000D0E2B18D8A47CEF71F07EEF71F080EF41
:10E2FA0071F0A7EF71F02F0E2B6486EF71F088EFA3
:10E30A0071F090EF71F0390E2B648EEF71F090EF8F
:10E31A0071F0A1EF71F0A00E236EFC0E246E2CECAE
:10E32A006EF0930E236EFB0E246E2CEC6EF0000E34
:10E33A002A6E2B68A7EF71F02A500A0DF3502B248E
:10E34A00D00F2A6E0D0E2B18D8A4AEEF71F0B0EFD5
:10E35A0071F072EF71F02A5012000268DDEF71F06D
:10E36A00E2EC6DF00009D8B4BDEF71F0BFEF71F0C7
:10E37A00DDEF71F043EC72F0026E83EC6EF000098F
:10E38A00D8B4CAEF71F0CCEF71F0DDEF71F0025042
:10E39A0011EC6EF00D0E0218D8A4D6EF71F0D8EF7A
:10E3AA0071F0DDEF71F00A0E11EC6EF0DDEF71F035
:10E3BA002F0E0264E3EF71F0E5EF71F0EDEF71F00B
:10E3CA007A0E0264EBEF71F0EDEF71F0F6EF71F097
:10E3DA000D0E0218D8A4F4EF71F0F6EF71F0B5EF54
:10E3EA0071F0025012003901A3A7FEEF71F000EF9D
:10E3FA0072F0F8EF71F0000E596E3D01F9A708EFBF
:10E40A0072F00AEF72F017EF72F0598202D817EF22
:10E41A0072F00500FA6E5E50FD6E5F50FE6EFF6A86
:10E42A00FA5012003D01F9A31DEF72F01FEF72F0CE
:10E43A002CEF72F0598402D82CEF72F00500FA6EB4
:10E44A005C50FD6E5D50FE6EFF6AFA501200595024
:10E45A00D8B432EF72F034EF72F040EF72F002D8B3
:10E46A0040EF72F00500FA6E5A50FD6E5B50FE6E78
:10E47A00FF6AFA5012003D01E85112003901A6A5BF
:10E48A0049EF72F04BEF72F043EF72F0000E586EE4
:10E49A003D01E1A753EF72F055EF72F063EF72F0AE
:10E4AA00588202D863EF72F00500FA6E0001A65195
:10E4BA00FD6EA751FE6EFF6AFA5012003D01E1A3FC
:10E4CA0069EF72F06BEF72F079EF72F0588402D84C
:10E4DA0079EF72F00500FA6E0001A451FD6EA551A4
:10E4EA00FE6EFF6AFA5012005850D8B47FEF72F0ED
:10E4FA0081EF72F08EEF72F002D88EEF72F00500A3
:10E50A00FA6E0001A251FD6EA351FE6EFF6AFA5027
:10E51A0012003D01D05112006DEC6EF00009D8B422
:10E52A0099EF72F09BEF72F091EF72F0BB0E04EC70
:10E53A006EF06DEC6EF00009D8B4A6EF72F0A8EF99
:10E54A0072F09EEF72F0320E04EC6EF06DEC6EF02B
:10E55A000009D8B4B3EF72F0B5EF72F0ABEF72F016
:10E56A00010E04EC6EF06DEC6EF00009D8B4C0EF49
:10E57A0072F0C2EF72F0B8EF72F0140E04EC6EF0A3
:10E58A006DEC6EF00009D8B4CDEF72F0CFEF72F0F7
:10E59A00C5EF72F0030E04EC6EF06DEC6EF000093C
:10E5AA00D8B4DAEF72F0DCEF72F0D2EF72F0020E4A
:10E5BA0004EC6EF01200000E076E6DEC6EF00009AE
:10E5CA00D8B4EAEF72F0ECEF72F0E2EF72F0B80E44
:10E5DA0004EC6EF06DEC6EF00009D8B4F7EF72F04F
:10E5EA00F9EF72F0EFEF72F0045004EC6EF026EFE0
:10E5FA0073F06DEC6EF00009D8B406EF73F008EF13
:10E60A0073F026EF73F007500224056E000E032004
:10E61A00066E600017F0F6FF60001BF0F7FF000EB1
:10E62A00F86E0F0EF76403D00800F55007D06F009C
:10E63A00DBFFE1FF6F00DFFFE2FFE75004EC6EF063
:10E64A00072A0450075CD8A02DEF73F02FEF73F060
:10E65A00FEEF72F01200000E066E02BE39EF73F082
:10E66A0037EF73F03FEF73F0016C021ED8B0022A45
:10E67A00010E066E04BE46EF73F044EF73F04AEFE4
:10E68A0073F0036C041ED8B0042A03500410D8B4E3
:10E69A0051EF73F053EF73F077EF73F0010E056EDD
:10E6AA005BEF73F0D89003360436052A04AE60EFA8
:10E6BA0073F062EF73F057EF73F00350015C04508C
:10E6CA000258D8A06BEF73F06DEF73F071EF73F02F
:10E6DA000350015E0450025AD89004320332052EC8
:10E6EA0062EF73F00650D8B47DEF73F07FEF73F0EA
:10E6FA0083EF73F0016C021ED8B0022A01C001F048
:10E70A0002C002F012006DEC6EF00009D8B490EF6E
:10E71A0073F092EF73F088EF73F0B40E04EC6EF0BE
:10E72A00000E126ECCEC6DF00009D8B49FEF73F0B6
:10E73A00A1EF73F097EF73F01250080FD96EDA6AEF
:10E74A00F8EC71F0DF6ECCEC6DF00009D8B4B0EFE4
:10E75A0073F0B2EF73F0A8EF73F012500D0FD96E89
:10E76A00DA6AF8EC71F0DF6E12500D0FD96EDA6AC0
:10E77A00DF50046E0450066E056A1250080FD96EF7
:10E78A00DA6ADF50076E07500526000E062212507D
:10E79A00020DF350800FD96EDA6A600017F0DEFFBF
:10E7AA0060001BF0DDFF122A040E1264DFEF73F023
:10E7BA00E1EF73F097EF73F0800E12000550061028
:10E7CA00D8B4EAEF73F0ECEF73F0F5EF73F005509D
:10E7DA000610D8A4F3EF73F0F5EF73F0FAEF73F0C5
:10E7EA0003509CEC6DF042EF74F020EE0AF00550F5
:10E7FA00D9260650DA22DE50DE10D8B407EF74F0BC
:10E80A0009EF74F024EF74F020EE0AF00550D926CF
:10E81A000650DA2210EE03F00550E1260650E222F5
:10E82A00DE50E65CE650800A0B6EDE50800A0B581A
:10E83A00D8B022EF74F024EF74F042EF74F020EEB7
:10E84A0003F00550D9260650DA22DF50076E600021
:10E85A0017F0D9FF60001BF0DAFFDF500724D96EEA
:10E86A00DA6A60000FF0DFFF20EE03F00550D926C8
:10E87A000650DA22DE2A000EDD221200000E066E93
:10E88A0004BE4CEF74F04AEF74F052EF74F0036C6C
:10E89A00041ED8B0042A010E066E02BE59EF74F0A7
:10E8AA0057EF74F05FEF74F0016C021ED8B0022AC1
:10E8BA00010E061A000E086E000E076E03500410B1
:10E8CA00D8B46AEF74F06CEF74F094EF74F0010E40
:10E8DA00056E74EF74F0D89003360436052A04AE38
:10E8EA0079EF74F07BEF74F070EF74F0D89007361C
:10E8FA0008360350015C04500258D8A087EF74F020
:10E90A0089EF74F08EEF74F00350015E0450025ADE
:10E91A000780D89004320332052E7BEF74F006503C
:10E92A00D8B49AEF74F09CEF74F0A0EF74F0076C0F
:10E93A00081ED8B0082A07C001F008C002F0120069
:10E94A00000EBE6E000EBD6E000EBA6E000EBB6EDD
:10E95A00000EBC6E070EC66EC268BF0EC36E840E72
:10E96A00C46EC568000E3A01706F000E606F2F0EFC
:10E97A00506F070E806FEF0E406F000E716F000E22
:10E98A00816F000E516F000E416F000E616F000E15
:10E99A005A6F000E5B6F000E6A6F000E6B6F000EEF
:10E9AA007A6F000E7B6F000E826F000E426F000EB0
:10E9BA00526F180E626F000E726F43695369636972
:10E9CA007369070E836F44695469646974690F0E29
:10E9DA00846F0F0EE86F250E106F160E0E6F210E44
:10E9EA00136F0F0E116F220E146F170EE56F040EC0
:10E9FA00C36F130EE16F0C0EDD6F140EE26F120E71
:10EA0A00CA6F0D0E156F130E166F1200BF0E236E0E
:10EA1A00FB0E246E2CEC6EF0950E236EFD0E246E0A
:10EA2A002CEC6EF02F0E236EFD0E246E2CEC6EF085
:10EA3A00730E236EFD0E246E2CEC6EF0510E236EB7
:10EA4A00FD0E246E2CEC6EF02F0E236EFD0E246E3E
:10EA5A002CEC6EF0950E236EFD0E246E2CEC6EF0EF
:10EA6A00A00E236EFC0E246E2CEC6EF0110E236E9B
:10EA7A00FE0E246E2CEC6EF0B70E236EFD0E246E85
:10EA8A002CEC6EF0A30E236EFC0E246E2CEC6EF0B2
:10EA9A00EA0E236EFC0E246E2CEC6EF0BF0E236E73
:10EAAA00FB0E246E2CEC6EF05C0E236EFB0E246EB5
:10EABA002CEC6EF0BF0E236EFB0E246E2CEC6EF067
:10EACA000D0E236EFD0E246E2CEC6EF0C70E236E17
:10EADA00FC0E246E2CEC6EF0DE0E236EFE0E246EFF
:10EAEA002CEC6EF0B00E236EFE0E246E2CEC6EF043
:10EAFA00C70E236EFE0E246E2CEC6EF04B0E236EA8
:10EB0A00FE0E246E2CEC6EF0BF0E236EFB0E246EEE
:10EB1A002CEC6EF0670E236EFE0E246E2CEC6EF05B
:10EB2A00A00E236EFC0E246E2CEC6EF01200466EC4
:10EB3A0046C048F01EEC6EF0B40E026EFF0E036E75
:10EB4A00080E046EE0EC72F0480E016E900ED7ECDF
:10EB5A006DF094EC6DF0010E026E000ED8EC6EF0C2
:10EB6A003B0E236E630E246EFF0E256E48C026F000
:10EB7A00276AB3EC6EF02350476E3B0E026E036AAF
:10EB8A0047C004F0E0EC72F041EF76F04AEC6EF028
:10EB9A0001C044F002C045F01B0E445CB70E455854
:10EBAA00D8A0DAEF75F0DCEF75F041EF76F04806A1
:10EBBA00000E026E000E016EBFEC6DF028EF76F0CB
:10EBCA001EEC6EF0010E026E000ED8EC6EF0240EF2
:10EBDA00026EFF0E036E080E046EE0EC72F041EF57
:10EBEA0076F0010E026E000ED8EC6EF02D0E026E5B
:10EBFA00FF0E036E080E046EE0EC72F041EF76F041
:10EC0A00010E026E000ED8EC6EF03F0E026EFF0E81
:10EC1A00036E080E046EE0EC72F041EF76F0010E1E
:10EC2A00026E000ED8EC6EF03B0E236E630E246E5D
:10EC3A00FF0E256E48C026F0276AB3EC6EF023500B
:10EC4A00476EC2EF75F04850396E3A6A3A50000A78
:10EC5A00D8B432EF76F014EF76F03950000AD8B40F
:10EC6A00E5EF75F0010AD8B4F6EF75F0030AD8B4E7
:10EC7A0005EF76F014EF76F04850D8A447EF76F017
:10EC8A0049EF76F0CBEF75F096EC6DF01200000EBE
:10EC9A00146E000E136E0E50D96EDA6A6F007BFF87
:10ECAA00F6FF6F0077FFF7FFF86A0800F550250AAC
:10ECBA00D8A462EF76F064EF76F0E0EF77F00E50CA
:10ECCA00D96EDA6ADE2A000EDD22000E546E000EBC
:10ECDA00536E53C057F0556856680E50D96EDA6AAB
:10ECEA006F0078FF15F06F0074FF16F0600057F0A0
:10ECFA00F6FF60005BF0F7FFF86A0800F550640A57
:10ED0A00D8B48AEF76F08CEF76F09DEF76F060005B
:10ED1A0057F0F6FF60005BF0F7FFF86A0800F5505D
:10ED2A00690AD8A49BEF76F09DEF76F039EF77F079
:10ED3A000F50D96EDA6A020EDF26DF5CD96EDA6A04
:10ED4A006F0078FF17F06F0078FF18F0010E152496
:10ED5A00106E000E1620116E0E50D96EDA6A60001F
:10ED6A0043F0DEFF600047F0DDFF200E1B6E18BE89
:10ED7A00C1EF76F0C4EF76F0010EC5EF76F0000E23
:10ED8A00126E1B061B50600FD96EDA6A17C001F0AB
:10ED9A0018C002F0000E046E0A0E036E30EC73F017
:10EDAA0001C007F002C008F099EC6EF00750300F6E
:10EDBA00DF6E17C001F018C002F0000E046E0A0ED2
:10EDCA00036E43EC74F001C017F002C018F0134A46
:10EDDA00142A17501810D8B4F5EF76F0F7EF76F03A
:10EDEA00FFEF76F01B50D8A4FDEF76F0FFEF76F038
:10EDFA00C6EF76F01B50D8B405EF77F007EF77F03F
:10EE0A002AEF77F01250D8B40DEF77F00FEF77F0C2
:10EE1A002AEF77F01B061B50600FD96EDA6A2D0EA7
:10EE2A00DF6E134A142A2AEF77F01B50600FD96E4F
:10EE3A00DA6ADF50106E1050036E046A0CC005F0D7
:10EE4A000DC006F0E3EC73F01B2A200E1B18D8A4A1
:10EE5A0031EF77F033EF77F01AEF77F013C00CF059
:10EE6A0014C00DF0FEEF77F0600057F0F6FF600077
:10EE7A005BF0F7FFF86A0800F550750AD8A448EF66
:10EE8A0077F04AEF77F0D4EF77F00F50D96EDA6A5D
:10EE9A00020EDF26DF5CD96EDA6A6F0078FF17F0A0
:10EEAA006F0078FF18F0010E1524106E000E162060
:10EEBA00116E0E50D96EDA6A600043F0DEFF600010
:10EECA0047F0DDFFBBEF77F0200E1B6E1B061B50D1
:10EEDA00600FD96EDA6A17C001F018C002F0000E8E
:10EEEA00046E0A0E036EE5EC6FF00150300FDF6E10
:10EEFA0017C001F018C002F0000E046E0A0E036E6D
:10EF0A00EFEC70F001C017F002C018F0134A142A8F
:10EF1A0017501810D8B494EF77F096EF77F0B0EF57
:10EF2A0077F01B50D8A49CEF77F09EEF77F06BEF49
:10EF3A0077F0B0EF77F01B50600FD96EDA6ADF50C6
:10EF4A00106E1050036E046A0CC005F00DC006F076
:10EF5A00E3EC73F01B2A200E1B18D8A4B7EF77F046
:10EF6A00B9EF77F0A0EF77F033EF77F0600057F062
:10EF7A00F6FF60005BF0F7FFF86A0800F550106EC4
:10EF8A00116A1150000AD8B4CDEF77F0D4EF77F0B8
:10EF9A001050750AD8B469EF77F0D4EF77F00E50B5
:10EFAA00D96EDA6ADE2A000EDD22000E0D6E000E20
:10EFBA000C6EFEEF77F00E50D96EDA6A6F007BFFA7
:10EFCA00F6FF6F0077FFF7FFF86A0800F550036E47
:10EFDA00046A0CC005F00DC006F0E3EC73F00E50A5
:10EFEA00D96EDA6ADE2A000EDD22000E0D6E010EDF
:10EFFA000C6E1200C5EC6DF0A5EC74F017EC70F015
:10F00A0086EC6FF0C38A3A01509BCBBA0FEF78F0C7
:10F01A0011EF78F092EF7CF00BEC75F01EEC6EF0CD
:10F02A00000E026E000ED8EC6EF0A20E026EFF0EFB
:10F03A00036E080E046EE0EC72F0B4EC6FF002C0DE
:10F04A0099F003C09AF08E0E236EE50E246EFF0E21
:10F05A00256E99C026F09AC027F0B3EC6EF02350C3
:10F06A0000019F6F010E026E000ED8EC6EF08E0E3C
:10F07A00026E036A9FC004F0E0EC72F0B2EC71F029
:10F08A0000018B6F55EF7CF0060E9CEC75F0140EA8
:10F09A0029EC71F0490E016E900ED7EC6DF01B0E43
:10F0AA00026E1C0E016EBFEC6DF094EC6DF0EDEC8F
:10F0BA006DF00009D8B464EF78F066EF78F05CEF91
:10F0CA0078F096EC6DF0000E29EC71F043EF78F0D1
:10F0DA001EEC6EF0000E026E000ED8EC6EF01A0EE8
:10F0EA00026EFF0E036E080E046EE0EC72F0010E63
:10F0FA00026E000ED8EC6EF0870E026EFF0E036EE3
:10F10A00080E046EE0EC72F0A00E236EFC0E246E64
:10F11A002CEC6EF0000E00018C6FF4EF78F01D0EEF
:10F12A00236EFC0E246E2CEC6EF02E0E236EFE0E59
:10F13A00246E2CEC6EF0B2EC71F000018A6F88EC50
:10F14A0073F00001A06F000E9D6F000E9C6F000E01
:10F15A00A16F040EA165B4EF78F0B6EF78F0B8EFBE
:10F16A0078F0E3EF78F0A151020DA051F324D96EA3
:10F17A00DA6A6F0078FF49F06F0074FF4AF09C5119
:10F18A0049249C6F9D514A209D6F080E236EFF0EE5
:10F19A00246EA1C025F0266AA151020DA051F324C4
:10F1AA00D96EDA6A6F0078FF27F06F0074FF28F0D3
:10F1BA002CEC6EF00001A12BAEEF78F09C519D1162
:10F1CA00D8A4EAEF78F0ECEF78F0F4EF78F0010EDB
:10F1DA008C6FD50E236EFD0E246E2CEC6EF00001A2
:10F1EA008C51D8B4FBEF78F0FDEF78F094EF78F01B
:10F1FA00000E8D6F77EF79F04A0E236EFC0E246EA7
:10F20A002CEC6EF02E0E236EFE0E246E2CEC6EF09D
:10F21A00B2EC71F000018A6F88EC73F00001A06F04
:10F22A00000E9D6F000E9C6F000EA16F040EA1656B
:10F23A0021EF79F023EF79F025EF79F050EF79F0AB
:10F24A00A151020DA051F324D96EDA6A6F0078FF3A
:10F25A0049F06F0074FF4AF09C5149249C6F9D51FC
:10F26A004A209D6F080E236EFF0E246EA1C025F062
:10F27A00266AA151020DA051F324D96EDA6A6F00F1
:10F28A0078FF27F06F0074FF28F02CEC6EF0000175
:10F29A00A12B1BEF79F0880E9C1907E1130E9D191B
:10F2AA00D8A45AEF79F05CEF79F077EF79F0010E94
:10F2BA008D6FF30E236EFD0E246E2CEC6EF0800E15
:10F2CA00236EFE0E246E2CEC6EF0010E026E000E02
:10F2DA00D8EC6EF0AB0E026EFF0E036E080E046ED3
:10F2EA00E0EC72F000018D51D8B47EEF79F080EF36
:10F2FA0079F001EF79F043EF78F01EEC6EF0000E32
:10F30A00026E000ED8EC6EF0480E026EFF0E036E0F
:10F31A00080E046EE0EC72F0010E026E000ED8ECDC
:10F32A006EF0D60E026EFF0E036E080E046EE0EC4F
:10F33A0072F0A00E236EFC0E246E2CEC6EF088EC9C
:10F34A0073F00001A06F000EA16F040EA165B0EF6B
:10F35A0079F0B2EF79F0B4EF79F043EF78F0080E74
:10F36A00236EFF0E246EA1C025F0266AA151020D5C
:10F37A00A051F324D96EDA6A6F0078FF27F06F0084
:10F38A0074FF28F02CEC6EF00001A12BAAEF79F0A3
:10F39A001EEC6EF0000E026E000ED8EC6EF0C60E79
:10F3AA00026EFF0E036E070E046EE0EC72F0A00E02
:10F3BA00236EFC0E246E2CEC6EF0870E236EFC0E70
:10F3CA00246E2CEC6EF06DEC71F000019B6FC00E98
:10F3DA00236EFB0E246E2CEC6EF004EF7AF0A00E76
:10F3EA00236EFC0E246E2CEC6EF0770E236EFC0E50
:10F3FA00246E2CEC6EF06DEC71F000019B6F2F0EF9
:10F40A0000019B650BEF7AF00DEF7AF0F4EF79F0DB
:10F41A00350E9B6113EF7AF015EF7AF0F4EF79F07D
:10F42A00000E026E070ED8EC6EF000019B5101EC43
:10F43A006FF088EC73F00001A06FF40E236EFE0EDD
:10F44A00246E9BC025F0266A9B51020DA051F3241D
:10F45A00D96EDA6A6F0078FF27F06F0074FF28F020
:10F46A002CEC6EF08E0E236EDE0E246EFF0E256ED1
:10F47A0000019B51020DA051F324D96EDA6A6F0084
:10F48A0078FF26F06F0074FF27F0B3EC6EF023507C
:10F49A0000019F6F010E026E000ED8EC6EF03CEF79
:10F4AA0078F01EEC6EF0000E026E000ED8EC6EF0D4
:10F4BA00900E026EFF0E036E080E046EE0EC72F000
:10F4CA00A00E236EFC0E246E2CEC6EF0B4EC6FF0E2
:10F4DA0002C099F003C09AF08E0E236EE50E246ED8
:10F4EA00FF0E256E99C026F09AC027F0B3EC6EF095
:10F4FA00235000019F6F010E026E000ED8EC6EF0D1
:10F50A008E0E026E036A9FC004F0E0EC72F0980E51
:10F51A00236EFE0E246E99C025F09AC026F02CECBC
:10F52A006EF043EF78F01EEC6EF0000E026E000EE5
:10F53A00D8EC6EF07E0E026EFF0E036E080E046E9D
:10F54A00E0EC72F0A00E236EFC0E246E2CEC6EF032
:10F55A00F00E236EFB0E246E2CEC6EF06DEC71F047
:10F56A0000019E6F9E5129EC71F08E0E236EF10EF2
:10F57A00246EFF0E256E9EC026F0276AB3EC6EF04D
:10F58A00235000019F6F010E026E000ED8EC6EF040
:10F59A003CEF78F01EEC6EF0000E026E000ED8EC16
:10F5AA006EF0990E026EFF0E036E080E046EE0EC0A
:10F5BA0072F0A00E236EFC0E246E2CEC6EF0C20EBE
:10F5CA00236EFB0E246E2CEC6EF06DEC71F00001D4
:10F5DA009E6F9E514BEC70F08E0E236EF10E246ED0
:10F5EA00FF0E256E9EC026F0276AB3EC6EF02350FC
:10F5FA0000019F6F010E026E000ED8EC6EF03CEF18
:10F60A0078F01EEC6EF0000E026E000ED8EC6EF072
:10F61A006C0E026EFF0E036E080E046EE0EC72F0C2
:10F62A00A00E236EFC0E246E2CEC6EF0F00E236EF0
:10F63A00FB0E246E2CEC6EF06DEC71F000019E6FE7
:10F64A00150E236EFB0E246E2CEC6EF06DEC71F031
:10F65A000001986F98C002F09E5181EC70F08E0EF6
:10F66A00236EEB0E246EFF0E256E9EC026F0276ACF
:10F67A0098C028F0296AB3EC6EF0235000019F6FFE
:10F68A00010E026E000ED8EC6EF03CEF78F01EEC24
:10F69A006EF0000E026E000ED8EC6EF0750E026E61
:10F6AA00FF0E036E080E046EE0EC72F0A00E236EDD
:10F6BA00FC0E246E2CEC6EF0F00E236EFB0E246E04
:10F6CA002CEC6EF06DEC71F000019E6F150E236E3E
:10F6DA00FB0E246E2CEC6EF06DEC71F00001986F4D
:10F6EA0098C002F09E51B8EC70F08E0E236EEB0EAD
:10F6FA00246EFF0E256E9EC026F0276A98C028F059
:10F70A00296AB3EC6EF0235000019F6F010E026E5E
:10F71A00000ED8EC6EF03CEF78F01EEC6EF0000EA6
:10F72A00026E000ED8EC6EF05A0E026EFF0E036ED9
:10F73A00080E046EE0EC72F0A00E236EFC0E246E2E
:10F74A002CEC6EF098EC6DF043EF78F01EEC6EF056
:10F75A00000E026E000ED8EC6EF0CE0E026EFF0E98
:10F76A00036E070E046EE0EC72F0010E026E000EDC
:10F77A00D8EC6EF0F60E026EFF0E036E030E046EE8
:10F78A00E0EC72F088EC73F00001A06F000EA16F3C
:10F79A00040EA165D3EF7BF0D5EF7BF0D7EF7BF0BA
:10F7AA00F0EF7BF0070E236EFF0E246EA1C025F04A
:10F7BA00266AA151020DA051F324D96EDA6A6F00AC
:10F7CA0078FF27F06F0074FF28F02CEC6EF0000130
:10F7DA00A12BCDEF7BF0C00E236EFB0E246E2CEC1A
:10F7EA006EF0330E4A6EBB0E496EE00EE82EFED75F
:10F7FA00492EFCD74A2EFAD7E2EC6DF00009D8B4AC
:10F80A0009EF7CF00BEF7CF0C7EF7BF043EC72F072
:10F81A000001976F710E9719D8B416EF7CF018EFA4
:10F82A007CF021EF7CF0510E9719D8A41FEF7CF0E1
:10F83A0021EF7CF0C7EF7BF01EEC6EF0000E026E3B
:10F84A00000ED8EC6EF0A20E026EFF0E036E080ECA
:10F85A00046EE0EC72F0B4EC6FF002C099F003C0F1
:10F86A009AF08E0E236EE50E246EFF0E256E99C059
:10F87A0026F09AC027F0B3EC6EF0235000019F6F78
:10F88A00010E026E000ED8EC6EF08E0E026E036A46
:10F89A009FC004F0E0EC72F00BEC75F043EF78F0E7
:10F8AA008B51496E4A6A4A50000AD8B45FEF7CF01D
:10F8BA0043EF78F04950420AD8B4CFEF7AF0040AFD
:10F8CA00D8B498EF7AF00A0AD8B406EF7BF01E0A89
:10F8DA00D8B44CEF7BF0010AD8B492EF7BF0070A58
:10F8EA00D8B4ABEF7BF0370AD8B46DEF78F0070ADB
:10F8FA00D8B4CDEF79F0090AD8B421EF7CF01F0A09
:10F90A00D8B482EF79F0040AD8B456EF7AF0010A33
:10F91A00D8B449EF78F043EF78F0CBAA97EF7CF0B0
:10F92A0099EF7CF088EF7DF00BEC75F01EEC6EF031
:10F93A00000E026E000ED8EC6EF0360E026EFF0E4E
:10F94A00036E080E046EE0EC72F0B4EC6FF002C0C5
:10F95A0099F003C09AF08E0E236EE50E246EFF0E08
:10F96A00256E99C026F09AC027F0B3EC6EF02350AA
:10F97A0000019F6F010E026E000ED8EC6EF08E0E23
:10F98A00026E036A9FC004F0E0EC72F03D0E4A6E0C
:10F99A00E10E496E400EE82EFED7492EFCD74A2EBC
:10F9AA00FAD7000E026E000ED8EC6EF0BD0E026E93
:10F9BA00FF0E036E080E046EE0EC72F02AEC6FF094
:10F9CA00010E026E000ED8EC6EF0510E026EFF0EA2
:10F9DA00036E080E046EE0EC72F0060E9CEC75F0F5
:10F9EA00100E496E940EE82EFED7492EFCD700D091
:10F9FA0091EC72F093EC6DF001C0A0F00001A051FF
:10FA0A00D96EDA6A060ED9266F0078FF49F06F00C0
:10FA1A0074FF4AF0A051D96EDA6A040ED9266F0033
:10FA2A0078FF4BF06F0074FF4CF0A051D96EDA6A80
:10FA3A00020ED9266F0078FF4DF06F0074FF4EF06A
:10FA4A004B504D244F6E4C504E20506E49504F240F
:10FA5A009C6F4A5050209D6F8E0E236EF10E246EBD
:10FA6A00FF0E256E9CC026F09DC027F0B3EC6EF009
:10FA7A00235000019F6F010E026E000ED8EC6EF04B
:10FA8A008E0E026E036A9FC004F0E0EC72F0000171
:10FA9A009C519D11D8A454EF7DF056EF7DF065EF8F
:10FAAA007DF06DEC6EF00009D8B45EEF7DF060EF8A
:10FABA007DF056EF7DF0BC0E04EC6EF0FFEF7CF0AB
:10FACA00A051D96EDA6A040ED926E80EDE5C030E5E
:10FADA00DE58D8B073EF7DF075EF7DF0FFEF7CF064
:10FAEA00BC0E04EC6EF0140E29EC71F03D0E4A6E59
:10FAFA00E10E496E400EE82EFED7492EFCD74A2E5B
:10FB0A00FAD7FDEF7CF0FEEF7FF0000920506C651C
:10FB1A0061736520656E74657220746865207475FA
:10FB2A00726E696E6720646966666572656E74696D
:10FB3A00616C3A207370656564202B20646966667F
:10FB4A006572656E7469616C203C20313237200D14
:10FB5A000A00202076200909202876296F6C746112
:10FB6A006765202D205265616420616E6420646996
:10FB7A0073706C6179206261747465727920766F32
:10FB8A006C74616765200D0A00496E76616C696460
:10FB9A0020696E7075742E20506C656173652072D1
:10FBAA0065646F206E756D65726963616C20696E3C
:10FBBA007075742E200D0A000920506C65617365FA
:10FBCA0020656E74657220746865206261636B7764
:10FBDA006172642073706565642C2030202D203199
:10FBEA003237200D0A000920506C65617365206563
:10FBFA006E7465722074686520666F7277617264CC
:10FC0A002073706565642C2030202D203132372016
:10FC1A000D0A00506C61636520616C6C2066697620
:10FC2A00652073656E736F7273206F6E2061207723
:10FC3A00686974652073757266616365200A0D00D0
:10FC4A00506C61636520616C6C206669766520730F
:10FC5A00656E736F7273206F6E206120626C6163D0
:10FC6A006B2073757266616365200A0D00496E76B2
:10FC7A00616C696420656E7472792E2020456E74F9
:10FC8A0065722073656E736F72206E756D62657230
:10FC9A002C20302D34200A0D002020722009092042
:10FCAA002872296561642063616C69627261746596
:10FCBA00642073656E736F7273200D0A00202042F0
:10FCCA0020090920576865656C7320726F74617426
:10FCDA00652028422961636B77617264200D0A00EE
:10FCEA00202064200909202864296973706C6179CD
:10FCFA002073656E736F7220782076616C7565204B
:10FD0A000D0A0020204620090920576865656C7392
:10FD1A0020726F74617465202846296F7277617248
:10FD2A0064200D0A00092A202020202020202020DB
:10FD3A0020202020202020202020202020202020B9
:10FD4A002020202A0D0A00092A20202020202044D1
:10FD5A006961676E6F73746963204D656E752020E3
:10FD6A0020202020202A0D0A00092A202020415084
:10FD7A0053432031323939202D20506F6C6F6C7506
:10FD8A00203370692020202A0D0A00092A2A2A2AEB
:10FD9A002A2A2A2A2A2A2A2A2A2A2A2A2A2A2A2AB9
:10FDAA002A2A2A2A2A2A2A2A2A2A0D0A00202063EB
:10FDBA0020090920286329616C69627261746520CF
:10FDCA0073656E736F7273200D0A005768697465E4
:10FDDA002063616C6962726174696F6E20636F6D12
:10FDEA00706C657465200A0D00426C61636B206358
:10FDFA00616C6962726174696F6E20636F6D706C99
:10FE0A00657465200A0D00436F6D6D616E64204B49
:10FE1A0065792009204465736372697074696F6E2D
:10FE2A00200D0A00507265737320616E79206B652C
:10FE3A007920746F20636F6E74696E7565200A0D80
:10FE4A00002020542009092028542965737420733E
:10FE5A00656E736F722072756E200D0A0020206D18
:10FE6A00200909205265667265736820286D296524
:10FE7A006E75200D0A0043616C6962726174696F64
:10FE8A006E20636F6D706C657465200A0D004261A7
:10FE9A00747465727920766F6C74616765203D2091
:10FEAA002575200A0D0020205220090920285229F0
:10FEBA0069676874207475726E200D0A00202053D9
:10FECA0020090920285329746F70206D6F746F728E
:10FEDA00200D0A0020204C20090920284C2965669B
:10FEEA0074207475726E200D0A000A53656E736F62
:10FEFA0072202564203D202575200A0D000A5365CD
:10FF0A006E736F72202575203D202575200A0D001D
:10FF1A0043616C69627261746500202020474F203A
:10FF2A0020200020205345542020200020205275F4
:10FF3A006E202020002052454144592020002020D4
:10FF4A00526561642020002020646F6E65202000C5
:10FF5A00202053746F7020200020202575207320E4
:10FF6A00200020204C6566742020002052696768B2
:10FF7A0074202000466F7277617264200053656EA8
:10FF8A00736F727320004261747465727920004243
:10FF9A0061636B7761726400446961676E6F736550
:10FFAA0000436F6D706C65746500436F756E74699C
:10FFBA006E67004175746F2043616C0053656E7300
:10FFCA006F7220005453656E736F720053656E73BF
:10FFDA006F727300202025752020002575206D562C
:10FFEA0000257520257500202575200052756E00A4
:01FFFA000006
:04FFFC003BEF6EF079
:020000040030CA
:0A000000ECFEF7FF9FFFFFFFFFFF7C
:00000001FF
